:100000000C945D000C9485000C9485000C94850084
:100010000C9485000C9485000C9485000C9485004C
:100020000C9485000C9485000C9485000C9485003C
:100030000C9485000C9485000C9485000C9485002C
:100040000C94D5010C9485000C9485000C948500CB
:100050000C9485000C9485000C9485000C9485000C
:100060000C9485000C94850000000008000201003B
:100070000003040700000000000000000000000072
:10008000250028002B0000000000240027002A0083
:10009000040404040404040402020202020203032E
:1000A0000303030301020408102040800102040836
:1000B0001020010204081020310311241FBECFEFCD
:1000C000D8E0DEBFCDBF11E0A0E0B1E0E8E5F7E0A9
:1000D00002C005900D92A032B107D9F721E0A0E24D
:1000E000B1E001C01D92A138B207E1F710E0CDE503
:1000F000D0E004C02197FE010E94A403CC35D107B3
:10010000C9F70E943E020C94AA030C94000090E0F0
:10011000FC01E859FF4F2491FC01EC55FF4F34914D
:10012000FC01E057FF4FE491EE2309F43CC0222389
:1001300039F1233091F038F42130A9F0223001F563
:1001400084B58F7D12C0273091F02830A1F0243083
:10015000B9F4809180008F7D03C0809180008F77FB
:10016000809380000DC084B58F7784BD09C08091D5
:10017000B0008F7703C08091B0008F7D8093B00076
:10018000F0E0EE0FFF1FE458FF4FA591B4919FB729
:10019000F894611104C08C913095382302C0EC9121
:1001A0003E2B3C939FBF08953FB7F8948091250163
:1001B00090912601A0912701B091280126B5A89B16
:1001C00005C02F3F19F00196A11DB11D3FBFBA2FE9
:1001D000A92F982F8827820F911DA11DB11DBC0149
:1001E000CD0142E0660F771F881F991F4A95D1F70E
:1001F00008958F929F92AF92BF92CF92DF92EF922B
:10020000FF926B017C010E94D4004B015C01C11480
:10021000D104E104F104F1F00E94D400DC01CB012F
:1002200088199909AA09BB09883E9340A105B1051F
:1002300070F321E0C21AD108E108F10888EE880EB7
:1002400083E0981EA11CB11CC114D104E104F10487
:1002500019F7DDCFFF90EF90DF90CF90BF90AF9078
:100260009F908F900895AF92BF92CF92DF92EF92BE
:10027000FF920F931F93CF93DF9300D0CDB7DEB7DC
:1002800069834A83880F991F00917F011091800133
:10029000000F111FE9E2F1E09F01295231402017C0
:1002A000310714F41192F8CF2981FC01E75DFE4F6C
:1002B00021838A81808360E080917D010E94870094
:1002C0001016110634F501501109F801E75DFE4FD3
:1002D000C080B0907B01A090790187E0E82EF12CDE
:1002E000D12CB6010E2C02C0759567950A94E2F7E1
:1002F00061708A2D0E94870061E08B2D0E9487002B
:1003000060E08B2D0E94870081E0E81AF10848F731
:10031000D7CF61E080917D010F900F90DF91CF9159
:100320001F910F91FF90EF90DF90CF90BF90AF9013
:100330000C948700EF92FF920F931F93CF937C0151
:100340008C0183E0000F111F8A95E1F7075C1E4FB7
:10035000C1E0F80111928F0140E06C2FC7010E94AB
:100360003301CF5FC930A9F7CF911F910F91FF9053
:10037000EF90089597FD18C020917F013091800182
:10038000821793078CF46830710570F4FC0123E048
:10039000EE0FFF1F2A95E1F7E75DFE4FE60FF71F0F
:1003A000408B6F5F0C94330108951F920F920FB62C
:1003B0000F9211242F933F938F939F93AF93BF93EB
:1003C0008091210190912201A0912301B0912401FB
:1003D0003091200123E0230F2D3720F40196A11D39
:1003E000B11D05C026E8230F0296A11DB11D209363
:1003F00020018093210190932201A0932301B093C7
:1004000024018091250190912601A0912701B091AE
:1004100028010196A11DB11D80932501909326010D
:10042000A0932701B0932801BF91AF919F918F9125
:100430003F912F910F900FBE0F901F90189590E055
:10044000FC01EC55FF4F2491FC01E057FF4F8491D4
:10045000882399F090E0880F991FFC01EA57FF4F1D
:10046000A591B491FC01E458FF4F859194918FB709
:10047000F894EC91E22BEC938FBF0895789484B5B7
:10048000826084BD84B5816084BD85B5826085BD90
:1004900085B5816085BD80916E00816080936E001E
:1004A0001092810080918100826080938100809110
:1004B00081008160809381008091800081608093C1
:1004C00080008091B10084608093B1008091B00081
:1004D00081608093B00080917A00846080937A007C
:1004E00080917A00826080937A0080917A008160A6
:1004F00080937A0080917A00806880937A001092CD
:10050000C10080917F01909180011816190634F482
:1005100041E06CE080E090E00E94330180917F0137
:1005200090918001029734F041E06CE081E090E02E
:100530000E94330180917F01909180011816190665
:1005400034F445E06AE080E090E00E94330180915D
:100550007F0190918001029734F045E06AE081E0EC
:1005600090E00E94330180917F01909180011816E4
:10057000190624F480E090E00E949A0180917F01A6
:1005800090918001029724F081E090E00E949A010E
:1005900000E010E030E0E32E31E0F32EC0E0D0E0E8
:1005A000F70141917F01BE0180E090E00E94BA0115
:1005B0002196C830D105A1F768EC70E080E090E0AA
:1005C0000E94F90028E0E22E21E0F22EC0E0D0E007
:1005D000F70141917F01BE0181E090E00E94BA01E4
:1005E0002196C830D105A1F768EC70E080E090E07A
:1005F0000E94F90090E1E92E91E0F92EC0E0D0E0F0
:10060000F70141917F01BE0180E090E00E94BA01B4
:100610002196C830D105A1F768EC70E080E090E049
:100620000E94F90088E1E82E81E0F82EC0E0D0E0D9
:10063000F70141917F01BE0181E090E00E94BA0183
:100640002196C830D105A1F768EC70E080E090E019
:100650000E94F9000115110509F49CCF0E940000C9
:1006600099CFCF93DF93CCE0D0E0D0937A01C093C1
:1006700079018AE090E090937C0180937B018BE08C
:1006800090E090937E0180937D0182E090E09093D2
:10069000800180937F018CE00E941F0280917B018A
:1006A0000E941F0280917D010E941F0261E08091E3
:1006B0007D010E948700D0937A01C0937901E9E31C
:1006C000F1E0119281E0E937F807D9F7C0E0D0E016
:1006D00080917F0190918001C817D90794F540E07F
:1006E0006FE0CE010E943301D7FD0CC080917F01E5
:1006F00090918001C817D9072CF447E06BE0CE0138
:100700000E94330140E069E0CE010E943301D7FD31
:1007100016C080917F0190918001C817D9071CF401
:10072000CE010E949A0180917F0190918001C817AB
:10073000D9072CF440E06CE0CE010E9433012196F1
:10074000C7CFDF91CF910895EE0FFF1F0590F49171
:08075000E02D0994F894FFCF9D
:10075800183C7EDBFF245AA524247EDBFFFFA5245A
:10076800183C7EDBFF245A4224A5FFDBFF7E24428F
:107E0000112484B714BE81FFF0D085E080938100F7
:107E100082E08093C00088E18093C10086E0809377
:107E2000C20080E18093C4008EE0C9D0259A86E02C
:107E300020E33CEF91E0309385002093840096BBD3
:107E4000B09BFECF1D9AA8958150A9F7CC24DD24C4
:107E500088248394B5E0AB2EA1E19A2EF3E0BF2EE7
:107E6000A2D0813461F49FD0082FAFD0023811F036
:107E7000013811F484E001C083E08DD089C08234E0
:107E800011F484E103C0853419F485E0A6D080C0E4
:107E9000853579F488D0E82EFF2485D0082F10E0AE
:107EA000102F00270E291F29000F111F8ED06801E7
:107EB0006FC0863521F484E090D080E0DECF843638
:107EC00009F040C070D06FD0082F6DD080E0C81688
:107ED00080E7D80618F4F601B7BEE895C0E0D1E017
:107EE00062D089930C17E1F7F0E0CF16F0E7DF06D8
:107EF00018F0F601B7BEE89568D007B600FCFDCFD4
:107F0000A601A0E0B1E02C9130E011968C91119780
:107F100090E0982F8827822B932B1296FA010C0160
:107F200087BEE89511244E5F5F4FF1E0A038BF0790
:107F300051F7F601A7BEE89507B600FCFDCF97BE46
:107F4000E89526C08437B1F42ED02DD0F82E2BD052
:107F50003CD0F601EF2C8F010F5F1F4F84911BD097
:107F6000EA94F801C1F70894C11CD11CFA94CF0C13
:107F7000D11C0EC0853739F428D08EE10CD085E9AC
:107F80000AD08FE07ACF813511F488E018D01DD067
:107F900080E101D065CF982F8091C00085FFFCCF94
:107FA0009093C60008958091C00087FFFCCF809118
:107FB000C00084FD01C0A8958091C6000895E0E648
:107FC000F0E098E1908380830895EDDF803219F02E
:107FD00088E0F5DFFFCF84E1DECF1F93182FE3DFCA
:107FE0001150E9F7F2DF1F91089580E0E8DFEE27F6
:047FF000FF270994CA
:027FFE00040479
:0400000300007E007B
:00000001FF
